:040000000208C332FD
:03000B000208CA1E
:200010000000E2FBEAF2802C0000E0FBEAF08024E6B50202EBF62200E2B50202EBF22200D6
:20003000E0B50202EBF02230F6E0A88220F5D3EAC6F582228B822230F6E6A88220F5D980E6
:01005000CFE0
:03007E000200512C
:0300510002087A28
:20008100E582FF700122C2AFE52260061522D2AF8004D2AF80F0C2AFE52060061520D2AFC9
:2000A1008004D2AF80F0E52770048F23800B7401B527048F2480028F25E52704F52774032C
:2000C100B52703752700C2AF0520D2AFC2AF0521D2AF22C2AFE52160061521D2AF8004D269
:2000E100AF80F0C2AFE52060061520D2AF8004D2AF80F0E5262423F98707E52604F5267462
:2001010003B52603752600C2AF0520D2AFC2AF0522D2AF8F82227F00C2AFE5216039E5216A
:2001210014F521D2AFC2AFE52060061520D2AF8004D2AF80F0E5262423F98707E52604F52F
:20014100267403B52603752600C2AF0520D2AFC2AF0522D2AF8002D2AF8F82227528001273
:200161000B37E582600FE52870F5120B4412008175280180EA75280080E5758280120A6EF5
:2001810075824C120AD8758265120AD8758276120AD8758265120AD875826C120AD87582D8
:2001A1003F120AD8758220120AD8758230120AD875822D120AD8758239120AD87582201280
:2001C1000AD8758274120AD8758268120AD8758265120AD875826E120AD8758223120AD8D3
:2001E1007582C0120A6E758232120AD875823D120AD8758275120AD8758270120AD87582C6
:2002010020120AD8758238120AD875823D120AD8758264120AD875826F120AD87582771255
:200221000AD875826E120AD8758220120AD8758220120AD8758220120AD8758220120AD856
:20024100758220020AD8758280120A6E758247120AD8758261120AD875826D120AD87582D4
:2002610065120AD8758220120AD875826F120AD8758276120AD8758265120AD87582721293
:200281000AD8758220120AD8758220120AD8758220120AD8758220120AD8758220120AD844
:2002A100758220120AD8758220120AD87582C0120A6E758253120AD8758263120AD8758263
:2002C1006F120AD8758272120AD8758265120AD875823A120AD8758220020AD8AE82AF838B
:2002E1007D00C3EE9410EF942740327508107509278E828F83C007C006120BC0AB82743080
:200301002BF582120AD8D006D0077508107509278E828F83120BE9AE82AF837D01ED7009F9
:20032100C3EE94E8EF940340327508E87509038E828F83C007C006120BC0AB8274302BF534
:2003410082120AD8D006D0077508E87509038E828F83120BE9AE82AF837D01ED7009C3EE74
:200361009464EF940040327508647509008E828F83C007C006120BC0AB8274302BF582121F
:200381000AD8D006D0077508647509008E828F83120BE9AE82AF837D01ED7009C3EE940AB1
:2003A100EF940040218E0575F00AED842430F582C007C006120AD8D006D0078E0575F00AEA
:2003C100ED84ADF08D0674302EF582020AD8758248120A6E758207120AD8758205120AD8A3
:2003E100758206120AD8758207120AD8758214120AD8758217120AD875820E120AD8758228
:200401000A120AD8758250120A6E758204120AD8758205120AD8758215120AD8758215120F
:200421000AD8758216120AD875820C120AD8758204120AD8758204020AD8758280120A6E12
:20044100E52A7008758201120AD88013E52C30E008758202120AD88006758220120AD8E509
:200461002C30E108758202120AD88006758220120AD8E52C30E208758202120AD8800675A5
:200481008220120AD8E52C30E308758202120AD88006758220120AD8E52C30E408758202F5
:2004A100120AD88006758220120AD8E52C30E508758202120AD88006758220120AD8E52CF9
:2004C10030E608758202120AD88006758220120AD8E52C30E708758202120AD880067582E5
:2004E10020120AD8E52D30E008758202120AD88006758220120AD8E52D30E1087582021209
:200501000AD88006758220120AD8E52D30E208758202120AD88006758220120AD8E52D307B
:20052100E308758202120AD88006758220120AD8E52D30E408758202120AD8800675822099
:20054100120AD8E52D30E508758202120AD88006758220120AD8E52D30E608758202120AB4
:20056100D88006758220120AD8E52D30E708758202120AD88006758220120AD87582C01299
:200581000A6E7401B52A08758201120AD88013E52E30E008758202120AD880067582201240
:2005A1000AD8E52E30E108758202120AD88006758220120AD8E52E30E208758202120AD894
:2005C1008006758220120AD8E52E30E308758202120AD88006758220120AD8E52E30E408AE
:2005E100758202120AD88006758220120AD8E52E30E508758202120AD88006758220120AA6
:20060100D8E52E30E608758202120AD88006758220120AD8E52E30E708758202120AD880B3
:2006210006758220120AD8E52F30E008758202120AD88006758220120AD8E52F30E108755C
:200641008202120AD88006758220120AD8E52F30E208758202120AD88006758220120AD8E4
:20066100E52F30E308758202120AD88006758220120AD8E52F30E408758202120AD8800629
:20068100758220120AD8E52F30E508758202120AD88006758220120AD8E52F30E608758276
:2006A10002120AD88006758220120AD8E52F30E706758202020AD8758220020AD8120A5B32
:2006C100120A57E58260F91203CF758201120A6E7F037402B52B19BF0202800B7582011237
:2006E1000A6E12017B7F02C00712097ED00780E27401B52B24C2AFE52960061529D2AF803C
:2007010004D2AF80F012043BC2AF0529D2AF7F01C00712097ED00780B97F00C00712097EA3
:20072100D00780AED582FD22AF327412C39FFFEF600D7582FFC007120725D0071F80F02296
:20074100AF82BF3204752A0022BF3803752A012274FC253E4006E53E04F53E22E52E452CDC
:20076100E52F452D54C0600122AF327E00EF2530FFEE3531EF30E007E52C432D808005E5F4
:200781002E432F80753E0022E52A7009E52C30E004752B00227401B52A09E52E30E00475FB
:2007A1002B0022E52E452CFEE52F452DEE30E00DAE30AF3174012EF530E43FF531E52DC334
:2007C10013C52C13C52CF52DE52FC313C52E13C52EF52F020751753200752B021200D4AFAF
:2007E10082BF3000400EEF24C640098F06EE24D0F53280E8BF23E5C2AFE52960061529D255
:20080100AF8004D2AF80F0752A01E4F52CF52DF52EF52FF530F531753E04752B01C2AF058C
:2008210029D2AF7401B52B28120117AF82C2AFE52960061529D2AF8004D2AF80F08F8212F9
:200841000741120789C2AF0529D2AF12072980D3C2AFE52960061529D2AF8004D2AF80F0DF
:20086100758201120A6E1202478530828531831202DDC2AF0529D2AF22752600752700754B
:200881002300752400752500752800752A01752B02E4F52CF52DF52EF52FF530F531F53242
:2008A100F53E752001F521752203752901120B3190015D1208FA9006BE1208FA1207D70275
:0F08C10009C70208D022222222020A0D02005487
:2008D00075890075A882D28C75340090087A1208FA85823388F0E5332435F88681A8F0D0B4
:2008F000D0D083D082D0F0D0E022C2AF740FB53406D2AF7582FF22753A0074FC253A40297E
:20091000853AF005F07E017F008006EE2EFEEF33FFD5F0F7AC347D00EC5206ED5207EE4F84
:200930006007E53A04F53A80D1853AF005F07401800225E0D5F0FB423485813CE53AC4544E
:20095000F0FF243FF581C082C0837400C0E0C0E0C0E0C0E0E53AC40354F8F53BC03BE53ACA
:200970002435F8A681853C81D2AF853A8222C2AFC0E0C0F0C082C083C0D088F0E53324350A
:20099000F8A681A8F0E533045403F533F5F005F07401D5F002800425E080F7553460E68888
:2009B000F0E5332435F88681A8F0D0D0D083D082D0F0D0E0D2AF22C2AF8533F005F0740154
:2009D000800225E0D5F0FBF4FF5234E533045403F533F5F005F07401D5F002800425E0808D
:2009F000F7553460E688F0E5332435F88681A8F0D0D0D083D082D0F0D0E0D2AF22C2AFC018
:200A1000E0C0F0C082C083C0D088F0E5332435F8A681A8F0E533045403F533F5F005F07498
:200A300001D5F002800425E080F7553460E688F0E5332435F88681A8F0D0D0D083D082D07A
:070A5000F0D0E0D2AF32222A
:200A5700853D8222120AAE758206120A6E75820F120A6E753D0122AF82753D0074F05FF5C8
:200A770090D292C292EFC454F0F590D292C292758228C007120B2DD007BF01028003BF02D6
:200A9700127582FF120B2D7582FF120B2D7582FF120B2D753D0122753D00759020D292C29B
:200AB70092758228120B2DD292C292758228120B2DD297D292C292758228120B2D753D01C6
:200AD70022AF82753D0074F05F4408F590D293D292C292EFC454F0FF74084FF590D292C2DD
:200AF70092758228120B2D753D0122AD82AE83AFF08D828E838FF0120C36FC60188C82C0DB
:1A0B170007C006C005120AD8D005D006D0070DBD00DF0E80DC22D582FD2211
:200B3100D2B37580F0227580F0A2B3B39200E433F582227580F774B7B580047582312274DB
:200B5100D7B580047582322274E7B58004758233227580FB74BBB580047582342274DBB5A0
:200B710080047582352274EBB58004758236227580FD74BDB580047582372274DDB5800475
:200B91007582382274EDB58004758239227580FE74BEB5800475822A2274DEB580047582E4
:0F0BB100302274EEB580047582232275820022F3
:200BC0007A10E4FBFCE58225E0F582E58333F583EB33FBEC33FCEB9508F5F0EC9509400649
:090BE000FCABF0438201DADD22D6
:20005400C000A88118C0D0B6001B18B610004015B637005010C0E0E65407B406005004E6D5
:0A00740054F8F6D0E0D0D0D00032EE
:200BE900E508450960467A01E50825E0F508E509334012F509E5829508E583950940030AD9
:200C090080E6C3E50913F509E50813F508C3E5829508F5F0E58395094005F58385F082C37D
:0D0C2900E50913F509E50813F508DAE122E5
:1C0C360020F71430F6148883A88220F507E6A88375830022E280F7E49322E022CD
:00000001FF
