:040000000201AB321C
:03000B000201B23D
:200010000000E2FBEAF2802C0000E0FBEAF08024E6B50202EBF62200E2B50202EBF22200D6
:20003000E0B50202EBF02230F6E0A88220F5D3EAC6F582228B822230F6E6A88220F5D980E6
:01005000CFE0
:03007E000200512C
:0300510002017B2E
:20008100E582FF700122C2AFE52260061522D2AF8004D2AF80F0C2AFE52060061520D2AFC9
:2000A1008004D2AF80F0E52770048F23800B7401B527048F2480028F25E52704F52774032C
:2000C100B52703752700C2AF0520D2AFC2AF0521D2AF22752800120419E5826015E528702E
:2000E100F512042A85822A852A8212008175280180E475280080DF7529001204BCE58260A0
:2001010015E52970F51204C985822B852B8212008175290180E475290080DF120343120313
:200121003FE58260F9758201120356C2AFE52160061521D2AF8004D2AF80F0C2AFE520607D
:20014100061520D2AF8004D2AF80F0E5262423F9872CE52604F5267403B52603752600C293
:20016100AF0520D2AFC2AF0522D2AF12033FE58260F9852C821203C080B17526007527008C
:200181007528007529007523007524007525007520017521007522031204B69000D412014F
:1701A100E29000F81201E202011C0201B8222222220202F502005437
:2001B80075890075A882D28C75340090017B1201E285823388F0E5332435F88681A8F0D0F8
:2001D800D0D083D082D0F0D0E022C2AF740FB53406D2AF7582FF22753A0074FC253A40299D
:2001F800853AF005F07E017F008006EE2EFEEF33FFD5F0F7AC347D00EC5206ED5207EE4FA4
:200218006007E53A04F53A80D1853AF005F07401800225E0D5F0FB423485813CE53AC4546D
:20023800F0FF243FF581C082C0837400C0E0C0E0C0E0C0E0E53AC40354F8F53BC03BE53AE9
:200258002435F8A681853C81D2AF853A8222C2AFC0E0C0F0C082C083C0D088F0E533243529
:20027800F8A681A8F0E533045403F533F5F005F07401D5F002800425E080F7553460E688A7
:20029800F0E5332435F88681A8F0D0D0D083D082D0F0D0E0D2AF22C2AF8533F005F0740173
:2002B800800225E0D5F0FBF4FF5234E533045403F533F5F005F07401D5F002800425E080AC
:2002D800F7553460E688F0E5332435F88681A8F0D0D0D083D082D0F0D0E0D2AF22C2AFC037
:2002F800E0C0F0C082C083C0D088F0E5332435F8A681A8F0E533045403F533F5F005F074B8
:2003180001D5F002800425E080F7553460E688F0E5332435F88681A8F0D0D0D083D082D099
:07033800F0D0E0D2AF322249
:20033F00853D822212039675820612035675820F120356753D0122AF82753D0074F05FF544
:20035F0090D292C292EFC454F0F590D292C292758228C007120415D007BF01028003BF0214
:20037F00127582FF1204157582FF1204157582FF120415753D0122753D00759020D292C217
:20039F0092758228120415D292C292758228120415D297D292C292758228120415753D0142
:2003BF0022AF82753D0074F05F4408F590D293D292C292EFC454F0FF74084FF590D292C2FC
:2003DF0092758228120415753D0122AD82AE83AFF08D828E838FF0120545FC60188C82C011
:1A03FF0007C006C0051203C0D005D006D0070DBD00DF0E80DC22D582FD2250
:2004190074FFB5A003D38001C3B39200E433F58222AEA07F00EEF4FEEFF4EE30E70475825C
:200439003722AEA07F00EEF4FEEFF4EE30E60475823622AEA07F00EEF4FEEFF4EE30E504CC
:2004590075823522AEA07F00EEF4FEEFF4EE30E40475823422AEA07F00EEF4FEEFF4EE30A4
:20047900E30475823322AEA07F00EEF4FEEFF4EE30E20475823222AEA07F00EEF4FEEFF4C1
:1D049900EE30E10475823122AEA07F00EEF4FEEFF4EE30E004758230227582002205
:2004B600D2B37580F0227580F0A2B3B39201E433F582227580F774B7B5800475823122745C
:2004D600D7B580047582322274E7B58004758233227580FB74BBB580047582342274DBB522
:2004F60080047582352274EBB58004758236227580FD74BDB580047582372274DDB58004F7
:200516007582382274EDB58004758239227580FE74BEB5800475822A2274DEB58004758265
:0F053600302274EEB58004758223227582002274
:20005400C000A88118C0D0B6001B18B610004015B637005010C0E0E65407B406005004E6D5
:0A00740054F8F6D0E0D0D0D00032EE
:1C05450020F71430F6148883A88220F507E6A88375830022E280F7E49322E022C5
:00000001FF
